:1000000037C000003DC000003BC0000039C0000008
:1000100037C0000035C0000033C0000031C0000010
:100020002FC000002DC000002BC0000029C0000020
:1000300027C0000025C0000023C0000021C0000030
:100040001FC000001DC000001BC0000019C0000040
:1000500017C0000015C0000013C0000011C0000050
:100060000FC000000DC000000BC0000009C0000060
:1000700011241FBECFEFD4E0DEBFCDBF0FD01CC018
:10008000BFCF10BC8FEF89B988E18AB98EE880BDF7
:1000900008955D9BFECF8CB908950895FEDFF1DFD2
:1000A00084E3F7DF2FEF8FEF9EE0215080409040F8
:0C00B000E1F700C00000F4CFF894FFCF8F
:00000001FF
